{
  "contractName": "HelloWorld",
  "abi": [
    {
      "inputs": [],
      "stateMutability": "nonpayable",
      "type": "constructor"
    },
    {
      "inputs": [
        {
          "internalType": "address",
          "name": "",
          "type": "address"
        }
      ],
      "name": "accounts",
      "outputs": [
        {
          "internalType": "string",
          "name": "",
          "type": "string"
        }
      ],
      "stateMutability": "view",
      "type": "function",
      "constant": true
    },
    {
      "inputs": [],
      "name": "getMessage",
      "outputs": [
        {
          "internalType": "string",
          "name": "",
          "type": "string"
        }
      ],
      "stateMutability": "view",
      "type": "function",
      "constant": true
    },
    {
      "inputs": [
        {
          "internalType": "string",
          "name": "_name",
          "type": "string"
        }
      ],
      "name": "setName",
      "outputs": [
        {
          "internalType": "bool",
          "name": "success",
          "type": "bool"
        }
      ],
      "stateMutability": "nonpayable",
      "type": "function"
    }
  ],
  "bytecode": "0x60806040523480156200001157600080fd5b506040518060400160405280600581526020017f576f726c6400000000000000000000000000000000000000000000000000000081525060009081620000589190620002d9565b50620003c0565b600081519050919050565b7f4e487b7100000000000000000000000000000000000000000000000000000000600052604160045260246000fd5b7f4e487b7100000000000000000000000000000000000000000000000000000000600052602260045260246000fd5b60006002820490506001821680620000e157607f821691505b602082108103620000f757620000f662000099565b5b50919050565b60008190508160005260206000209050919050565b60006020601f8301049050919050565b600082821b905092915050565b600060088302620001617fffffffffffffffffffffffffffffffffffffffffffffffffffffffffffffffff8262000122565b6200016d868362000122565b95508019841693508086168417925050509392505050565b6000819050919050565b6000819050919050565b6000620001ba620001b4620001ae8462000185565b6200018f565b62000185565b9050919050565b6000819050919050565b620001d68362000199565b620001ee620001e582620001c1565b8484546200012f565b825550505050565b600090565b62000205620001f6565b62000212818484620001cb565b505050565b5b818110156200023a576200022e600082620001fb565b60018101905062000218565b5050565b601f82111562000289576200025381620000fd565b6200025e8462000112565b810160208510156200026e578190505b620002866200027d8562000112565b83018262000217565b50505b505050565b600082821c905092915050565b6000620002ae600019846008026200028e565b1980831691505092915050565b6000620002c983836200029b565b9150826002028217905092915050565b620002e4826200005f565b67ffffffffffffffff8111156200030057620002ff6200006a565b5b6200030c8254620000c8565b620003198282856200023e565b600060209050601f8311600181146200035157600084156200033c578287015190505b620003488582620002bb565b865550620003b8565b601f1984166200036186620000fd565b60005b828110156200038b5784890151825560018201915060208501945060208101905062000364565b86831015620003ab5784890151620003a7601f8916826200029b565b8355505b6001600288020188555050505b505050505050565b610bce80620003d06000396000f3fe608060405234801561001057600080fd5b50600436106100415760003560e01c80635e5c06e214610046578063c47f002714610076578063ce6d41de146100a6575b600080fd5b610060600480360381019061005b9190610543565b6100c4565b60405161006d9190610600565b60405180910390f35b610090600480360381019061008b9190610757565b610164565b60405161009d91906107bb565b60405180910390f35b6100ae6101c9565b6040516100bb9190610600565b60405180910390f35b600160205280600052604060002060009150905080546100e390610805565b80601f016020809104026020016040519081016040528092919081815260200182805461010f90610805565b801561015c5780601f106101315761010080835404028352916020019161015c565b820191906000526020600020905b81548152906001019060200180831161013f57829003601f168201915b505050505081565b60008082511161017357600080fd5b81600160003373ffffffffffffffffffffffffffffffffffffffff1673ffffffffffffffffffffffffffffffffffffffff16815260200190815260200160002090816101bf91906109ec565b5060019050919050565b6060600080600160003373ffffffffffffffffffffffffffffffffffffffff1673ffffffffffffffffffffffffffffffffffffffff168152602001908152602001600020805461021890610805565b905011610226576000610266565b600160003373ffffffffffffffffffffffffffffffffffffffff1673ffffffffffffffffffffffffffffffffffffffff1681526020019081526020016000205b805461027190610805565b80601f016020809104026020016040519081016040528092919081815260200182805461029d90610805565b80156102ea5780601f106102bf576101008083540402835291602001916102ea565b820191906000526020600020905b8154815290600101906020018083116102cd57829003601f168201915b505050505090506103306040518060400160405280600781526020017f48656c6c6f2c200000000000000000000000000000000000000000000000000081525082610336565b91505090565b6060600083905060008390506000815183516103529190610aed565b67ffffffffffffffff81111561036b5761036a61062c565b5b6040519080825280601f01601f19166020018201604052801561039d5781602001600182028036833780820191505090505b5090506000819050600080600091505b8551821015610435578582815181106103c9576103c8610b21565b5b602001015160f81c60f81b8382806103e090610b50565b9350815181106103f3576103f2610b21565b5b60200101907effffffffffffffffffffffffffffffffffffffffffffffffffffffffffffff1916908160001a905350818061042d90610b50565b9250506103ad565b600091505b84518210156104c25784828151811061045657610455610b21565b5b602001015160f81c60f81b83828061046d90610b50565b9350815181106104805761047f610b21565b5b60200101907effffffffffffffffffffffffffffffffffffffffffffffffffffffffffffff1916908160001a90535081806104ba90610b50565b92505061043a565b82965050505050505092915050565b6000604051905090565b600080fd5b600080fd5b600073ffffffffffffffffffffffffffffffffffffffff82169050919050565b6000610510826104e5565b9050919050565b61052081610505565b811461052b57600080fd5b50565b60008135905061053d81610517565b92915050565b600060208284031215610559576105586104db565b5b60006105678482850161052e565b91505092915050565b600081519050919050565b600082825260208201905092915050565b60005b838110156105aa57808201518184015260208101905061058f565b60008484015250505050565b6000601f19601f8301169050919050565b60006105d282610570565b6105dc818561057b565b93506105ec81856020860161058c565b6105f5816105b6565b840191505092915050565b6000602082019050818103600083015261061a81846105c7565b905092915050565b600080fd5b600080fd5b7f4e487b7100000000000000000000000000000000000000000000000000000000600052604160045260246000fd5b610664826105b6565b810181811067ffffffffffffffff821117156106835761068261062c565b5b80604052505050565b60006106966104d1565b90506106a2828261065b565b919050565b600067ffffffffffffffff8211156106c2576106c161062c565b5b6106cb826105b6565b9050602081019050919050565b82818337600083830152505050565b60006106fa6106f5846106a7565b61068c565b90508281526020810184848401111561071657610715610627565b5b6107218482856106d8565b509392505050565b600082601f83011261073e5761073d610622565b5b813561074e8482602086016106e7565b91505092915050565b60006020828403121561076d5761076c6104db565b5b600082013567ffffffffffffffff81111561078b5761078a6104e0565b5b61079784828501610729565b91505092915050565b60008115159050919050565b6107b5816107a0565b82525050565b60006020820190506107d060008301846107ac565b92915050565b7f4e487b7100000000000000000000000000000000000000000000000000000000600052602260045260246000fd5b6000600282049050600182168061081d57607f821691505b6020821081036108305761082f6107d6565b5b50919050565b60008190508160005260206000209050919050565b60006020601f8301049050919050565b600082821b905092915050565b6000600883026108987fffffffffffffffffffffffffffffffffffffffffffffffffffffffffffffffff8261085b565b6108a2868361085b565b95508019841693508086168417925050509392505050565b6000819050919050565b6000819050919050565b60006108e96108e46108df846108ba565b6108c4565b6108ba565b9050919050565b6000819050919050565b610903836108ce565b61091761090f826108f0565b848454610868565b825550505050565b600090565b61092c61091f565b6109378184846108fa565b505050565b5b8181101561095b57610950600082610924565b60018101905061093d565b5050565b601f8211156109a05761097181610836565b61097a8461084b565b81016020851015610989578190505b61099d6109958561084b565b83018261093c565b50505b505050565b600082821c905092915050565b60006109c3600019846008026109a5565b1980831691505092915050565b60006109dc83836109b2565b9150826002028217905092915050565b6109f582610570565b67ffffffffffffffff811115610a0e57610a0d61062c565b5b610a188254610805565b610a2382828561095f565b600060209050601f831160018114610a565760008415610a44578287015190505b610a4e85826109d0565b865550610ab6565b601f198416610a6486610836565b60005b82811015610a8c57848901518255600182019150602085019450602081019050610a67565b86831015610aa95784890151610aa5601f8916826109b2565b8355505b6001600288020188555050505b505050505050565b7f4e487b7100000000000000000000000000000000000000000000000000000000600052601160045260246000fd5b6000610af8826108ba565b9150610b03836108ba565b9250828201905080821115610b1b57610b1a610abe565b5b92915050565b7f4e487b7100000000000000000000000000000000000000000000000000000000600052603260045260246000fd5b6000610b5b826108ba565b91507fffffffffffffffffffffffffffffffffffffffffffffffffffffffffffffffff8203610b8d57610b8c610abe565b5b60018201905091905056fea26469706673582212207088c84c47c755c370a930c8613327582e748275d342d173c5e5fbf3cbc3a79864736f6c63430008130033",
  "immutableReferences": {},
  "source": "// SPDX-License-Identifier: MIT\r\npragma solidity ^0.8.0;\r\n\r\n/** @title Documents. */ \r\ncontract HelloWorld {\r\n     \r\nstring defaultName;\r\nmapping (address => string) public accounts; \r\n \r\nconstructor() public{\r\n    defaultName = 'World';\r\n}\r\n\r\n/** @dev Retrieve Message to Print\r\n      * @return The Message to Print, Hello, Concatenated with the User Name\r\n      */ \r\nfunction getMessage() public view returns(string memory){\r\n    string memory name = bytes(accounts[msg.sender]).length > 0 ? accounts[msg.sender] : defaultName;\r\n    return concat(\"Hello, \" , name);\r\n}\r\n \r\n/** @dev Set the Name to Greet \r\n      * @param  _name  user name\r\n      * @return success Returns bool value (True or False) to indicate if save was successful or not\r\n      */\r\nfunction setName(string memory _name) public returns(bool success){\r\n    require(bytes(_name).length > 0);\r\n    accounts[msg.sender] = _name;\r\n    return true;\r\n}\r\n\r\n/** @dev Set the Name to Greet \r\n      * @param  _base  contains the base value \" Hello, \"\r\n      * @param  _value contains the name to append to message to display\r\n      * @return the concatenated string of _base+_value i.e. Hello, Name\r\n      */ \r\n function concat(string memory _base, string memory _value) internal pure returns (string memory) {\r\n        bytes memory _baseBytes = bytes(_base);\r\n        bytes memory _valueBytes = bytes(_value);\r\n \r\n        string memory _tmpValue = new string(_baseBytes.length + _valueBytes.length);\r\n        bytes memory _newValue = bytes(_tmpValue);\r\n \r\n        uint i;\r\n        uint j;\r\n \r\n        for(i=0; i<_baseBytes.length; i++) {\r\n            _newValue[j++] = _baseBytes[i];\r\n        }\r\n \r\n        for(i=0; i<_valueBytes.length; i++) {\r\n            _newValue[j++] = _valueBytes[i];\r\n        }\r\n        \r\n        return string(_newValue);\r\n    }\r\n}\r\n",
  "sourcePath": "D:\\Stuff\\Git Projects\\BNB Chain Tutorial\\bnb-chain-tutorial\\01- Hello World Full Stack dApp on BSC\\contracts\\HelloWorld.sol",
  "compiler": {
    "name": "solc",
    "version": "0.8.19+commit.7dd6d404.Emscripten.clang"
  },
  "schemaVersion": "3.4.4",
  "updatedAt": "2023-03-17T14:46:38.926Z",
  "networkType": "ethereum",
  "devdoc": {
    "kind": "dev",
    "methods": {
      "getMessage()": {
        "details": "Retrieve Message to Print",
        "returns": {
          "_0": "The Message to Print, Hello, Concatenated with the User Name"
        }
      },
      "setName(string)": {
        "details": "Set the Name to Greet ",
        "params": {
          "_name": "user name"
        },
        "returns": {
          "success": "Returns bool value (True or False) to indicate if save was successful or not"
        }
      }
    },
    "title": "Documents. ",
    "version": 1
  },
  "userdoc": {
    "kind": "user",
    "methods": {},
    "version": 1
  }
}