{
  "contractName": "HelloWorld",
  "abi": [
    {
      "inputs": [],
      "stateMutability": "nonpayable",
      "type": "constructor"
    },
    {
      "inputs": [
        {
          "internalType": "address",
          "name": "",
          "type": "address"
        }
      ],
      "name": "accounts",
      "outputs": [
        {
          "internalType": "string",
          "name": "",
          "type": "string"
        }
      ],
      "stateMutability": "view",
      "type": "function"
    },
    {
      "inputs": [],
      "name": "getMessage",
      "outputs": [
        {
          "internalType": "string",
          "name": "",
          "type": "string"
        }
      ],
      "stateMutability": "view",
      "type": "function"
    },
    {
      "inputs": [
        {
          "internalType": "string",
          "name": "_name",
          "type": "string"
        }
      ],
      "name": "setName",
      "outputs": [
        {
          "internalType": "bool",
          "name": "success",
          "type": "bool"
        }
      ],
      "stateMutability": "nonpayable",
      "type": "function"
    }
  ],
  "bytecode": "0x60806040523480156200001157600080fd5b506040518060400160405280600581526020017f576f726c6400000000000000000000000000000000000000000000000000000081525060009081620000589190620002d9565b50620003c0565b600081519050919050565b7f4e487b7100000000000000000000000000000000000000000000000000000000600052604160045260246000fd5b7f4e487b7100000000000000000000000000000000000000000000000000000000600052602260045260246000fd5b60006002820490506001821680620000e157607f821691505b602082108103620000f757620000f662000099565b5b50919050565b60008190508160005260206000209050919050565b60006020601f8301049050919050565b600082821b905092915050565b600060088302620001617fffffffffffffffffffffffffffffffffffffffffffffffffffffffffffffffff8262000122565b6200016d868362000122565b95508019841693508086168417925050509392505050565b6000819050919050565b6000819050919050565b6000620001ba620001b4620001ae8462000185565b6200018f565b62000185565b9050919050565b6000819050919050565b620001d68362000199565b620001ee620001e582620001c1565b8484546200012f565b825550505050565b600090565b62000205620001f6565b62000212818484620001cb565b505050565b5b818110156200023a576200022e600082620001fb565b60018101905062000218565b5050565b601f82111562000289576200025381620000fd565b6200025e8462000112565b810160208510156200026e578190505b620002866200027d8562000112565b83018262000217565b50505b505050565b600082821c905092915050565b6000620002ae600019846008026200028e565b1980831691505092915050565b6000620002c983836200029b565b9150826002028217905092915050565b620002e4826200005f565b67ffffffffffffffff8111156200030057620002ff6200006a565b5b6200030c8254620000c8565b620003198282856200023e565b600060209050601f8311600181146200035157600084156200033c578287015190505b620003488582620002bb565b865550620003b8565b601f1984166200036186620000fd565b60005b828110156200038b5784890151825560018201915060208501945060208101905062000364565b86831015620003ab5784890151620003a7601f8916826200029b565b8355505b6001600288020188555050505b505050505050565b610bf980620003d06000396000f3fe608060405234801561001057600080fd5b50600436106100415760003560e01c80635e5c06e214610046578063c47f002714610076578063ce6d41de146100a6575b600080fd5b610060600480360381019061005b9190610543565b6100c4565b60405161006d9190610609565b60405180910390f35b610090600480360381019061008b9190610760565b610164565b60405161009d91906107c4565b60405180910390f35b6100ae6101c9565b6040516100bb9190610609565b60405180910390f35b600160205280600052604060002060009150905080546100e39061080e565b80601f016020809104026020016040519081016040528092919081815260200182805461010f9061080e565b801561015c5780601f106101315761010080835404028352916020019161015c565b820191906000526020600020905b81548152906001019060200180831161013f57829003601f168201915b505050505081565b60008082511161017357600080fd5b81600160003373ffffffffffffffffffffffffffffffffffffffff1673ffffffffffffffffffffffffffffffffffffffff16815260200190815260200160002090816101bf91906109f5565b5060019050919050565b6060600080600160003373ffffffffffffffffffffffffffffffffffffffff1673ffffffffffffffffffffffffffffffffffffffff16815260200190815260200160002080546102189061080e565b905011610226576000610266565b600160003373ffffffffffffffffffffffffffffffffffffffff1673ffffffffffffffffffffffffffffffffffffffff1681526020019081526020016000205b80546102719061080e565b80601f016020809104026020016040519081016040528092919081815260200182805461029d9061080e565b80156102ea5780601f106102bf576101008083540402835291602001916102ea565b820191906000526020600020905b8154815290600101906020018083116102cd57829003601f168201915b505050505090506103306040518060400160405280600781526020017f48656c6c6f2c200000000000000000000000000000000000000000000000000081525082610336565b91505090565b6060600083905060008390506000815183516103529190610af6565b67ffffffffffffffff81111561036b5761036a610635565b5b6040519080825280601f01601f19166020018201604052801561039d5781602001600182028036833780820191505090505b5090506000819050600080600091505b8551821015610435578582815181106103c9576103c8610b4c565b5b602001015160f81c60f81b8382806103e090610b7b565b9350815181106103f3576103f2610b4c565b5b60200101907effffffffffffffffffffffffffffffffffffffffffffffffffffffffffffff1916908160001a905350818061042d90610b7b565b9250506103ad565b600091505b84518210156104c25784828151811061045657610455610b4c565b5b602001015160f81c60f81b83828061046d90610b7b565b9350815181106104805761047f610b4c565b5b60200101907effffffffffffffffffffffffffffffffffffffffffffffffffffffffffffff1916908160001a90535081806104ba90610b7b565b92505061043a565b82965050505050505092915050565b6000604051905090565b600080fd5b600080fd5b600073ffffffffffffffffffffffffffffffffffffffff82169050919050565b6000610510826104e5565b9050919050565b61052081610505565b811461052b57600080fd5b50565b60008135905061053d81610517565b92915050565b600060208284031215610559576105586104db565b5b60006105678482850161052e565b91505092915050565b600081519050919050565b600082825260208201905092915050565b60005b838110156105aa57808201518184015260208101905061058f565b838111156105b9576000848401525b50505050565b6000601f19601f8301169050919050565b60006105db82610570565b6105e5818561057b565b93506105f581856020860161058c565b6105fe816105bf565b840191505092915050565b6000602082019050818103600083015261062381846105d0565b905092915050565b600080fd5b600080fd5b7f4e487b7100000000000000000000000000000000000000000000000000000000600052604160045260246000fd5b61066d826105bf565b810181811067ffffffffffffffff8211171561068c5761068b610635565b5b80604052505050565b600061069f6104d1565b90506106ab8282610664565b919050565b600067ffffffffffffffff8211156106cb576106ca610635565b5b6106d4826105bf565b9050602081019050919050565b82818337600083830152505050565b60006107036106fe846106b0565b610695565b90508281526020810184848401111561071f5761071e610630565b5b61072a8482856106e1565b509392505050565b600082601f8301126107475761074661062b565b5b81356107578482602086016106f0565b91505092915050565b600060208284031215610776576107756104db565b5b600082013567ffffffffffffffff811115610794576107936104e0565b5b6107a084828501610732565b91505092915050565b60008115159050919050565b6107be816107a9565b82525050565b60006020820190506107d960008301846107b5565b92915050565b7f4e487b7100000000000000000000000000000000000000000000000000000000600052602260045260246000fd5b6000600282049050600182168061082657607f821691505b602082108103610839576108386107df565b5b50919050565b60008190508160005260206000209050919050565b60006020601f8301049050919050565b600082821b905092915050565b6000600883026108a17fffffffffffffffffffffffffffffffffffffffffffffffffffffffffffffffff82610864565b6108ab8683610864565b95508019841693508086168417925050509392505050565b6000819050919050565b6000819050919050565b60006108f26108ed6108e8846108c3565b6108cd565b6108c3565b9050919050565b6000819050919050565b61090c836108d7565b610920610918826108f9565b848454610871565b825550505050565b600090565b610935610928565b610940818484610903565b505050565b5b818110156109645761095960008261092d565b600181019050610946565b5050565b601f8211156109a95761097a8161083f565b61098384610854565b81016020851015610992578190505b6109a661099e85610854565b830182610945565b50505b505050565b600082821c905092915050565b60006109cc600019846008026109ae565b1980831691505092915050565b60006109e583836109bb565b9150826002028217905092915050565b6109fe82610570565b67ffffffffffffffff811115610a1757610a16610635565b5b610a21825461080e565b610a2c828285610968565b600060209050601f831160018114610a5f5760008415610a4d578287015190505b610a5785826109d9565b865550610abf565b601f198416610a6d8661083f565b60005b82811015610a9557848901518255600182019150602085019450602081019050610a70565b86831015610ab25784890151610aae601f8916826109bb565b8355505b6001600288020188555050505b505050505050565b7f4e487b7100000000000000000000000000000000000000000000000000000000600052601160045260246000fd5b6000610b01826108c3565b9150610b0c836108c3565b9250827fffffffffffffffffffffffffffffffffffffffffffffffffffffffffffffffff03821115610b4157610b40610ac7565b5b828201905092915050565b7f4e487b7100000000000000000000000000000000000000000000000000000000600052603260045260246000fd5b6000610b86826108c3565b91507fffffffffffffffffffffffffffffffffffffffffffffffffffffffffffffffff8203610bb857610bb7610ac7565b5b60018201905091905056fea2646970667358221220bbfb719ad389f833d3feb36957d5dff72c7bd8bd25e18d930159456fb767d2f164736f6c634300080f0033",
  "immutableReferences": {},
  "source": "// SPDX-License-Identifier: MIT\npragma solidity ^0.8.0;\n\n/** @title Documents. */ \ncontract HelloWorld {\n     \nstring defaultName;\nmapping (address => string) public accounts; \n \nconstructor() public{\n    defaultName = 'World';\n}\n\n/** @dev Retrieve Message to Print\n      * @return The Message to Print, Hello, Concatenated with the User Name\n      */ \nfunction getMessage() public view returns(string memory){\n    string memory name = bytes(accounts[msg.sender]).length > 0 ? accounts[msg.sender] : defaultName;\n    return concat(\"Hello, \" , name);\n}\n \n/** @dev Set the Name to Greet \n      * @param  _name  user name\n      * @return success Returns bool value (True or False) to indicate if save was successful or not\n      */\nfunction setName(string memory _name) public returns(bool success){\n    require(bytes(_name).length > 0);\n    accounts[msg.sender] = _name;\n    return true;\n}\n\n/** @dev Set the Name to Greet \n      * @param  _base  contains the base value \" Hello, \"\n      * @param  _value contains the name to append to message to display\n      * @return the concatenated string of _base+_value i.e. Hello, Name\n      */ \n function concat(string memory _base, string memory _value) internal pure returns (string memory) {\n        bytes memory _baseBytes = bytes(_base);\n        bytes memory _valueBytes = bytes(_value);\n \n        string memory _tmpValue = new string(_baseBytes.length + _valueBytes.length);\n        bytes memory _newValue = bytes(_tmpValue);\n \n        uint i;\n        uint j;\n \n        for(i=0; i<_baseBytes.length; i++) {\n            _newValue[j++] = _baseBytes[i];\n        }\n \n        for(i=0; i<_valueBytes.length; i++) {\n            _newValue[j++] = _valueBytes[i];\n        }\n        \n        return string(_newValue);\n    }\n}\n",
  "sourcePath": "F:\\rumeel\\hello-world-dev\\tutorial1\\helloworld\\contracts\\HelloWorld.sol",
  "compiler": {
    "name": "solc",
    "version": "0.8.15+commit.e14f2714.Emscripten.clang"
  },
  "schemaVersion": "3.4.7",
  "updatedAt": "2022-06-29T18:59:36.692Z",
  "devdoc": {
    "kind": "dev",
    "methods": {
      "getMessage()": {
        "details": "Retrieve Message to Print",
        "returns": {
          "_0": "The Message to Print, Hello, Concatenated with the User Name"
        }
      },
      "setName(string)": {
        "details": "Set the Name to Greet ",
        "params": {
          "_name": "user name"
        },
        "returns": {
          "success": "Returns bool value (True or False) to indicate if save was successful or not"
        }
      }
    },
    "title": "Documents. ",
    "version": 1
  },
  "userdoc": {
    "kind": "user",
    "methods": {},
    "version": 1
  }
}