{
  "contractName": "Collection",
  "abi": [
    {
      "inputs": [],
      "stateMutability": "nonpayable",
      "type": "constructor"
    },
    {
      "anonymous": false,
      "inputs": [
        {
          "indexed": true,
          "internalType": "address",
          "name": "owner",
          "type": "address"
        },
        {
          "indexed": true,
          "internalType": "address",
          "name": "approved",
          "type": "address"
        },
        {
          "indexed": true,
          "internalType": "uint256",
          "name": "tokenId",
          "type": "uint256"
        }
      ],
      "name": "Approval",
      "type": "event"
    },
    {
      "anonymous": false,
      "inputs": [
        {
          "indexed": true,
          "internalType": "address",
          "name": "owner",
          "type": "address"
        },
        {
          "indexed": true,
          "internalType": "address",
          "name": "operator",
          "type": "address"
        },
        {
          "indexed": false,
          "internalType": "bool",
          "name": "approved",
          "type": "bool"
        }
      ],
      "name": "ApprovalForAll",
      "type": "event"
    },
    {
      "anonymous": false,
      "inputs": [
        {
          "indexed": true,
          "internalType": "address",
          "name": "previousOwner",
          "type": "address"
        },
        {
          "indexed": true,
          "internalType": "address",
          "name": "newOwner",
          "type": "address"
        }
      ],
      "name": "OwnershipTransferred",
      "type": "event"
    },
    {
      "anonymous": false,
      "inputs": [
        {
          "indexed": true,
          "internalType": "address",
          "name": "from",
          "type": "address"
        },
        {
          "indexed": true,
          "internalType": "address",
          "name": "to",
          "type": "address"
        },
        {
          "indexed": true,
          "internalType": "uint256",
          "name": "tokenId",
          "type": "uint256"
        }
      ],
      "name": "Transfer",
      "type": "event"
    },
    {
      "inputs": [
        {
          "internalType": "uint256",
          "name": "",
          "type": "uint256"
        }
      ],
      "name": "AllowedCrypto",
      "outputs": [
        {
          "internalType": "contract IERC20",
          "name": "paytoken",
          "type": "address"
        },
        {
          "internalType": "uint256",
          "name": "costvalue",
          "type": "uint256"
        }
      ],
      "stateMutability": "view",
      "type": "function"
    },
    {
      "inputs": [
        {
          "internalType": "address",
          "name": "to",
          "type": "address"
        },
        {
          "internalType": "uint256",
          "name": "tokenId",
          "type": "uint256"
        }
      ],
      "name": "approve",
      "outputs": [],
      "stateMutability": "nonpayable",
      "type": "function"
    },
    {
      "inputs": [
        {
          "internalType": "address",
          "name": "owner",
          "type": "address"
        }
      ],
      "name": "balanceOf",
      "outputs": [
        {
          "internalType": "uint256",
          "name": "",
          "type": "uint256"
        }
      ],
      "stateMutability": "view",
      "type": "function"
    },
    {
      "inputs": [],
      "name": "baseExtension",
      "outputs": [
        {
          "internalType": "string",
          "name": "",
          "type": "string"
        }
      ],
      "stateMutability": "view",
      "type": "function"
    },
    {
      "inputs": [],
      "name": "baseURI",
      "outputs": [
        {
          "internalType": "string",
          "name": "",
          "type": "string"
        }
      ],
      "stateMutability": "view",
      "type": "function"
    },
    {
      "inputs": [
        {
          "internalType": "uint256",
          "name": "tokenId",
          "type": "uint256"
        }
      ],
      "name": "getApproved",
      "outputs": [
        {
          "internalType": "address",
          "name": "",
          "type": "address"
        }
      ],
      "stateMutability": "view",
      "type": "function"
    },
    {
      "inputs": [
        {
          "internalType": "address",
          "name": "owner",
          "type": "address"
        },
        {
          "internalType": "address",
          "name": "operator",
          "type": "address"
        }
      ],
      "name": "isApprovedForAll",
      "outputs": [
        {
          "internalType": "bool",
          "name": "",
          "type": "bool"
        }
      ],
      "stateMutability": "view",
      "type": "function"
    },
    {
      "inputs": [],
      "name": "maxMintAmount",
      "outputs": [
        {
          "internalType": "uint256",
          "name": "",
          "type": "uint256"
        }
      ],
      "stateMutability": "view",
      "type": "function"
    },
    {
      "inputs": [],
      "name": "maxSupply",
      "outputs": [
        {
          "internalType": "uint256",
          "name": "",
          "type": "uint256"
        }
      ],
      "stateMutability": "view",
      "type": "function"
    },
    {
      "inputs": [],
      "name": "name",
      "outputs": [
        {
          "internalType": "string",
          "name": "",
          "type": "string"
        }
      ],
      "stateMutability": "view",
      "type": "function"
    },
    {
      "inputs": [],
      "name": "owner",
      "outputs": [
        {
          "internalType": "address",
          "name": "",
          "type": "address"
        }
      ],
      "stateMutability": "view",
      "type": "function"
    },
    {
      "inputs": [
        {
          "internalType": "uint256",
          "name": "tokenId",
          "type": "uint256"
        }
      ],
      "name": "ownerOf",
      "outputs": [
        {
          "internalType": "address",
          "name": "",
          "type": "address"
        }
      ],
      "stateMutability": "view",
      "type": "function"
    },
    {
      "inputs": [],
      "name": "paused",
      "outputs": [
        {
          "internalType": "bool",
          "name": "",
          "type": "bool"
        }
      ],
      "stateMutability": "view",
      "type": "function"
    },
    {
      "inputs": [],
      "name": "renounceOwnership",
      "outputs": [],
      "stateMutability": "nonpayable",
      "type": "function"
    },
    {
      "inputs": [
        {
          "internalType": "address",
          "name": "from",
          "type": "address"
        },
        {
          "internalType": "address",
          "name": "to",
          "type": "address"
        },
        {
          "internalType": "uint256",
          "name": "tokenId",
          "type": "uint256"
        }
      ],
      "name": "safeTransferFrom",
      "outputs": [],
      "stateMutability": "nonpayable",
      "type": "function"
    },
    {
      "inputs": [
        {
          "internalType": "address",
          "name": "from",
          "type": "address"
        },
        {
          "internalType": "address",
          "name": "to",
          "type": "address"
        },
        {
          "internalType": "uint256",
          "name": "tokenId",
          "type": "uint256"
        },
        {
          "internalType": "bytes",
          "name": "data",
          "type": "bytes"
        }
      ],
      "name": "safeTransferFrom",
      "outputs": [],
      "stateMutability": "nonpayable",
      "type": "function"
    },
    {
      "inputs": [
        {
          "internalType": "address",
          "name": "operator",
          "type": "address"
        },
        {
          "internalType": "bool",
          "name": "approved",
          "type": "bool"
        }
      ],
      "name": "setApprovalForAll",
      "outputs": [],
      "stateMutability": "nonpayable",
      "type": "function"
    },
    {
      "inputs": [
        {
          "internalType": "bytes4",
          "name": "interfaceId",
          "type": "bytes4"
        }
      ],
      "name": "supportsInterface",
      "outputs": [
        {
          "internalType": "bool",
          "name": "",
          "type": "bool"
        }
      ],
      "stateMutability": "view",
      "type": "function"
    },
    {
      "inputs": [],
      "name": "symbol",
      "outputs": [
        {
          "internalType": "string",
          "name": "",
          "type": "string"
        }
      ],
      "stateMutability": "view",
      "type": "function"
    },
    {
      "inputs": [
        {
          "internalType": "uint256",
          "name": "index",
          "type": "uint256"
        }
      ],
      "name": "tokenByIndex",
      "outputs": [
        {
          "internalType": "uint256",
          "name": "",
          "type": "uint256"
        }
      ],
      "stateMutability": "view",
      "type": "function"
    },
    {
      "inputs": [
        {
          "internalType": "address",
          "name": "owner",
          "type": "address"
        },
        {
          "internalType": "uint256",
          "name": "index",
          "type": "uint256"
        }
      ],
      "name": "tokenOfOwnerByIndex",
      "outputs": [
        {
          "internalType": "uint256",
          "name": "",
          "type": "uint256"
        }
      ],
      "stateMutability": "view",
      "type": "function"
    },
    {
      "inputs": [],
      "name": "totalSupply",
      "outputs": [
        {
          "internalType": "uint256",
          "name": "",
          "type": "uint256"
        }
      ],
      "stateMutability": "view",
      "type": "function"
    },
    {
      "inputs": [
        {
          "internalType": "address",
          "name": "from",
          "type": "address"
        },
        {
          "internalType": "address",
          "name": "to",
          "type": "address"
        },
        {
          "internalType": "uint256",
          "name": "tokenId",
          "type": "uint256"
        }
      ],
      "name": "transferFrom",
      "outputs": [],
      "stateMutability": "nonpayable",
      "type": "function"
    },
    {
      "inputs": [
        {
          "internalType": "address",
          "name": "newOwner",
          "type": "address"
        }
      ],
      "name": "transferOwnership",
      "outputs": [],
      "stateMutability": "nonpayable",
      "type": "function"
    },
    {
      "inputs": [
        {
          "internalType": "contract IERC20",
          "name": "_paytoken",
          "type": "address"
        },
        {
          "internalType": "uint256",
          "name": "_costvalue",
          "type": "uint256"
        }
      ],
      "name": "addCurrency",
      "outputs": [],
      "stateMutability": "nonpayable",
      "type": "function"
    },
    {
      "inputs": [
        {
          "internalType": "address",
          "name": "_to",
          "type": "address"
        },
        {
          "internalType": "uint256",
          "name": "_mintAmount",
          "type": "uint256"
        }
      ],
      "name": "mint",
      "outputs": [],
      "stateMutability": "payable",
      "type": "function"
    },
    {
      "inputs": [
        {
          "internalType": "address",
          "name": "_to",
          "type": "address"
        },
        {
          "internalType": "uint256",
          "name": "_mintAmount",
          "type": "uint256"
        },
        {
          "internalType": "uint256",
          "name": "_pid",
          "type": "uint256"
        }
      ],
      "name": "mintpid",
      "outputs": [],
      "stateMutability": "payable",
      "type": "function"
    },
    {
      "inputs": [
        {
          "internalType": "address",
          "name": "_owner",
          "type": "address"
        }
      ],
      "name": "walletOfOwner",
      "outputs": [
        {
          "internalType": "uint256[]",
          "name": "",
          "type": "uint256[]"
        }
      ],
      "stateMutability": "view",
      "type": "function"
    },
    {
      "inputs": [
        {
          "internalType": "uint256",
          "name": "tokenId",
          "type": "uint256"
        }
      ],
      "name": "tokenURI",
      "outputs": [
        {
          "internalType": "string",
          "name": "",
          "type": "string"
        }
      ],
      "stateMutability": "view",
      "type": "function"
    },
    {
      "inputs": [
        {
          "internalType": "uint256",
          "name": "_newmaxMintAmount",
          "type": "uint256"
        }
      ],
      "name": "setmaxMintAmount",
      "outputs": [],
      "stateMutability": "nonpayable",
      "type": "function"
    },
    {
      "inputs": [
        {
          "internalType": "string",
          "name": "_newBaseURI",
          "type": "string"
        }
      ],
      "name": "setBaseURI",
      "outputs": [],
      "stateMutability": "nonpayable",
      "type": "function"
    },
    {
      "inputs": [
        {
          "internalType": "string",
          "name": "_newBaseExtension",
          "type": "string"
        }
      ],
      "name": "setBaseExtension",
      "outputs": [],
      "stateMutability": "nonpayable",
      "type": "function"
    },
    {
      "inputs": [
        {
          "internalType": "bool",
          "name": "_state",
          "type": "bool"
        }
      ],
      "name": "pause",
      "outputs": [],
      "stateMutability": "nonpayable",
      "type": "function"
    },
    {
      "inputs": [
        {
          "internalType": "uint256",
          "name": "_pid",
          "type": "uint256"
        }
      ],
      "name": "getNFTCost",
      "outputs": [
        {
          "internalType": "uint256",
          "name": "",
          "type": "uint256"
        }
      ],
      "stateMutability": "view",
      "type": "function"
    },
    {
      "inputs": [
        {
          "internalType": "uint256",
          "name": "_pid",
          "type": "uint256"
        }
      ],
      "name": "getCryptotoken",
      "outputs": [
        {
          "internalType": "contract IERC20",
          "name": "",
          "type": "address"
        }
      ],
      "stateMutability": "view",
      "type": "function"
    },
    {
      "inputs": [
        {
          "internalType": "uint256",
          "name": "_pid",
          "type": "uint256"
        }
      ],
      "name": "withdraw",
      "outputs": [],
      "stateMutability": "payable",
      "type": "function"
    }
  ],
  "bytecode": "0x60806040526040518060400160405280600581526020017f2e6a736f6e000000000000000000000000000000000000000000000000000000815250600d90816200004a91906200048b565b5067d02ab486cedc0000600e556103e8600f5560056010556000601160006101000a81548160ff0219169083151502179055503480156200008a57600080fd5b506040518060400160405280601681526020017f4e657432446576204e465420436f6c6c656374696f6e000000000000000000008152506040518060400160405280600381526020017f4e3244000000000000000000000000000000000000000000000000000000000081525081600090816200010891906200048b565b5080600190816200011a91906200048b565b5050506200013d620001316200014360201b60201c565b6200014b60201b60201c565b62000572565b600033905090565b6000600a60009054906101000a900473ffffffffffffffffffffffffffffffffffffffff16905081600a60006101000a81548173ffffffffffffffffffffffffffffffffffffffff021916908373ffffffffffffffffffffffffffffffffffffffff1602179055508173ffffffffffffffffffffffffffffffffffffffff168173ffffffffffffffffffffffffffffffffffffffff167f8be0079c531659141344cd1fd0a4f28419497f9722a3daafe3b4186f6b6457e060405160405180910390a35050565b600081519050919050565b7f4e487b7100000000000000000000000000000000000000000000000000000000600052604160045260246000fd5b7f4e487b7100000000000000000000000000000000000000000000000000000000600052602260045260246000fd5b600060028204905060018216806200029357607f821691505b602082108103620002a957620002a86200024b565b5b50919050565b60008190508160005260206000209050919050565b60006020601f8301049050919050565b600082821b905092915050565b600060088302620003137fffffffffffffffffffffffffffffffffffffffffffffffffffffffffffffffff82620002d4565b6200031f8683620002d4565b95508019841693508086168417925050509392505050565b6000819050919050565b6000819050919050565b60006200036c62000366620003608462000337565b62000341565b62000337565b9050919050565b6000819050919050565b62000388836200034b565b620003a0620003978262000373565b848454620002e1565b825550505050565b600090565b620003b7620003a8565b620003c48184846200037d565b505050565b5b81811015620003ec57620003e0600082620003ad565b600181019050620003ca565b5050565b601f8211156200043b576200040581620002af565b6200041084620002c4565b8101602085101562000420578190505b620004386200042f85620002c4565b830182620003c9565b50505b505050565b600082821c905092915050565b6000620004606000198460080262000440565b1980831691505092915050565b60006200047b83836200044d565b9150826002028217905092915050565b620004968262000211565b67ffffffffffffffff811115620004b257620004b16200021c565b5b620004be82546200027a565b620004cb828285620003f0565b600060209050601f831160018114620005035760008415620004ee578287015190505b620004fa85826200046d565b8655506200056a565b601f1984166200051386620002af565b60005b828110156200053d5784890151825560018201915060208501945060208101905062000516565b868310156200055d578489015162000559601f8916826200044d565b8355505b6001600288020188555050505b505050505050565b61480a80620005826000396000f3fe60806040526004361061020f5760003560e01c806355f804b31161011857806395d89b41116100a0578063c87b56dd1161006f578063c87b56dd146107ab578063d5abeb01146107e8578063da3ef23f14610813578063e985e9c51461083c578063f2fde38b146108795761020f565b806395d89b4114610703578063a22cb4651461072e578063b88d4fde14610757578063c6682862146107805761020f565b80636c0360eb116100e75780636c0360eb1461063057806370a082311461065b578063715018a6146106985780637f00c7a6146106af5780638da5cb5b146106d85761020f565b806355f804b3146105765780635c975abb1461059f5780636352211e146105ca578063690e4fc3146106075761020f565b806326c91cad1161019b5780633d3d55081161016a5780633d3d55081461047a57806340c10f19146104b757806342842e0e146104d3578063438b6300146104fc5780634f6ccce7146105395761020f565b806326c91cad146103c75780632e1a7d4d146104055780632f745c5914610421578063356911b41461045e5761020f565b8063095ea7b3116101e2578063095ea7b3146102e25780630c75afab1461030b57806318160ddd14610348578063239c70ae1461037357806323b872dd1461039e5761020f565b806301ffc9a71461021457806302329a291461025157806306fdde031461027a578063081812fc146102a5575b600080fd5b34801561022057600080fd5b5061023b60048036038101906102369190612e27565b6108a2565b6040516102489190612e6f565b60405180910390f35b34801561025d57600080fd5b5061027860048036038101906102739190612eb6565b61091c565b005b34801561028657600080fd5b5061028f610941565b60405161029c9190612f73565b60405180910390f35b3480156102b157600080fd5b506102cc60048036038101906102c79190612fcb565b6109d3565b6040516102d99190613039565b60405180910390f35b3480156102ee57600080fd5b5061030960048036038101906103049190613080565b610a19565b005b34801561031757600080fd5b50610332600480360381019061032d9190612fcb565b610b30565b60405161033f919061311f565b60405180910390f35b34801561035457600080fd5b5061035d610b8a565b60405161036a9190613149565b60405180910390f35b34801561037f57600080fd5b50610388610b97565b6040516103959190613149565b60405180910390f35b3480156103aa57600080fd5b506103c560048036038101906103c09190613164565b610b9d565b005b3480156103d357600080fd5b506103ee60048036038101906103e99190612fcb565b610bfd565b6040516103fc9291906131b7565b60405180910390f35b61041f600480360381019061041a9190612fcb565b610c51565b005b34801561042d57600080fd5b5061044860048036038101906104439190613080565b610da5565b6040516104559190613149565b60405180910390f35b610478600480360381019061047391906131e0565b610e4a565b005b34801561048657600080fd5b506104a1600480360381019061049c9190612fcb565b611047565b6040516104ae9190613149565b60405180910390f35b6104d160048036038101906104cc9190613080565b611081565b005b3480156104df57600080fd5b506104fa60048036038101906104f59190613164565b6111a3565b005b34801561050857600080fd5b50610523600480360381019061051e9190613233565b6111c3565b604051610530919061331e565b60405180910390f35b34801561054557600080fd5b50610560600480360381019061055b9190612fcb565b611271565b60405161056d9190613149565b60405180910390f35b34801561058257600080fd5b5061059d60048036038101906105989190613475565b6112e2565b005b3480156105ab57600080fd5b506105b46112fd565b6040516105c19190612e6f565b60405180910390f35b3480156105d657600080fd5b506105f160048036038101906105ec9190612fcb565b611310565b6040516105fe9190613039565b60405180910390f35b34801561061357600080fd5b5061062e600480360381019061062991906134fc565b611396565b005b34801561063c57600080fd5b5061064561144b565b6040516106529190612f73565b60405180910390f35b34801561066757600080fd5b50610682600480360381019061067d9190613233565b6114d9565b60405161068f9190613149565b60405180910390f35b3480156106a457600080fd5b506106ad611590565b005b3480156106bb57600080fd5b506106d660048036038101906106d19190612fcb565b6115a4565b005b3480156106e457600080fd5b506106ed6115b6565b6040516106fa9190613039565b60405180910390f35b34801561070f57600080fd5b506107186115e0565b6040516107259190612f73565b60405180910390f35b34801561073a57600080fd5b506107556004803603810190610750919061353c565b611672565b005b34801561076357600080fd5b5061077e6004803603810190610779919061361d565b611688565b005b34801561078c57600080fd5b506107956116ea565b6040516107a29190612f73565b60405180910390f35b3480156107b757600080fd5b506107d260048036038101906107cd9190612fcb565b611778565b6040516107df9190612f73565b60405180910390f35b3480156107f457600080fd5b506107fd611822565b60405161080a9190613149565b60405180910390f35b34801561081f57600080fd5b5061083a60048036038101906108359190613475565b611828565b005b34801561084857600080fd5b50610863600480360381019061085e91906136a0565b611843565b6040516108709190612e6f565b60405180910390f35b34801561088557600080fd5b506108a0600480360381019061089b9190613233565b6118d7565b005b60007f780e9d63000000000000000000000000000000000000000000000000000000007bffffffffffffffffffffffffffffffffffffffffffffffffffffffff1916827bffffffffffffffffffffffffffffffffffffffffffffffffffffffff1916148061091557506109148261195a565b5b9050919050565b610924611a3c565b80601160006101000a81548160ff02191690831515021790555050565b6060600080546109509061370f565b80601f016020809104026020016040519081016040528092919081815260200182805461097c9061370f565b80156109c95780601f1061099e576101008083540402835291602001916109c9565b820191906000526020600020905b8154815290600101906020018083116109ac57829003601f168201915b5050505050905090565b60006109de82611aba565b6004600083815260200190815260200160002060009054906101000a900473ffffffffffffffffffffffffffffffffffffffff169050919050565b6000610a2482611310565b90508073ffffffffffffffffffffffffffffffffffffffff168373ffffffffffffffffffffffffffffffffffffffff1603610a94576040517f08c379a0000000000000000000000000000000000000000000000000000000008152600401610a8b906137b2565b60405180910390fd5b8073ffffffffffffffffffffffffffffffffffffffff16610ab3611b05565b73ffffffffffffffffffffffffffffffffffffffff161480610ae25750610ae181610adc611b05565b611843565b5b610b21576040517f08c379a0000000000000000000000000000000000000000000000000000000008152600401610b1890613844565b60405180910390fd5b610b2b8383611b0d565b505050565b600080600b8381548110610b4757610b46613864565b5b9060005260206000209060020201905060008160000160009054906101000a900473ffffffffffffffffffffffffffffffffffffffff1690508092505050919050565b6000600880549050905090565b60105481565b610bae610ba8611b05565b82611bc6565b610bed576040517f08c379a0000000000000000000000000000000000000000000000000000000008152600401610be490613905565b60405180910390fd5b610bf8838383611c5b565b505050565b600b8181548110610c0d57600080fd5b90600052602060002090600202016000915090508060000160009054906101000a900473ffffffffffffffffffffffffffffffffffffffff16908060010154905082565b610c59611a3c565b6000600b8281548110610c6f57610c6e613864565b5b9060005260206000209060020201905060008160000160009054906101000a900473ffffffffffffffffffffffffffffffffffffffff1690508073ffffffffffffffffffffffffffffffffffffffff1663a9059cbb338373ffffffffffffffffffffffffffffffffffffffff166370a08231306040518263ffffffff1660e01b8152600401610cfe9190613039565b602060405180830381865afa158015610d1b573d6000803e3d6000fd5b505050506040513d601f19601f82011682018060405250810190610d3f919061393a565b6040518363ffffffff1660e01b8152600401610d5c929190613967565b6020604051808303816000875af1158015610d7b573d6000803e3d6000fd5b505050506040513d601f19601f82011682018060405250810190610d9f91906139a5565b50505050565b6000610db0836114d9565b8210610df1576040517f08c379a0000000000000000000000000000000000000000000000000000000008152600401610de890613a44565b60405180910390fd5b600660008473ffffffffffffffffffffffffffffffffffffffff1673ffffffffffffffffffffffffffffffffffffffff168152602001908152602001600020600083815260200190815260200160002054905092915050565b6000600b8281548110610e6057610e5f613864565b5b9060005260206000209060020201905060008160000160009054906101000a900473ffffffffffffffffffffffffffffffffffffffff1690506000826001015490506000610eac610b8a565b9050601160009054906101000a900460ff1615610ec857600080fd5b60008611610ed557600080fd5b601054861115610ee457600080fd5b600f548682610ef39190613a93565b1115610efe57600080fd5b610f066115b6565b73ffffffffffffffffffffffffffffffffffffffff163373ffffffffffffffffffffffffffffffffffffffff1614610f86578582610f449190613ac7565b3414610f85576040517f08c379a0000000000000000000000000000000000000000000000000000000008152600401610f7c90613b7b565b60405180910390fd5b5b6000600190505b86811161103d578373ffffffffffffffffffffffffffffffffffffffff166323b872dd3330866040518463ffffffff1660e01b8152600401610fd193929190613b9b565b6020604051808303816000875af1158015610ff0573d6000803e3d6000fd5b505050506040513d601f19601f8201168201806040525081019061101491906139a5565b5061102a8882846110259190613a93565b611f54565b808061103590613bd2565b915050610f8d565b5050505050505050565b600080600b838154811061105e5761105d613864565b5b906000526020600020906002020190506000816001015490508092505050919050565b600061108b610b8a565b9050601160009054906101000a900460ff16156110a757600080fd5b600082116110b457600080fd5b6010548211156110c357600080fd5b600f5482826110d29190613a93565b11156110dd57600080fd5b6110e56115b6565b73ffffffffffffffffffffffffffffffffffffffff163373ffffffffffffffffffffffffffffffffffffffff16146111675781600e546111259190613ac7565b3414611166576040517f08c379a000000000000000000000000000000000000000000000000000000000815260040161115d90613b7b565b60405180910390fd5b5b6000600190505b82811161119d5761118a8482846111859190613a93565b611f54565b808061119590613bd2565b91505061116e565b50505050565b6111be83838360405180602001604052806000815250611688565b505050565b606060006111d0836114d9565b905060008167ffffffffffffffff8111156111ee576111ed61334a565b5b60405190808252806020026020018201604052801561121c5781602001602082028036833780820191505090505b50905060005b82811015611266576112348582610da5565b82828151811061124757611246613864565b5b602002602001018181525050808061125e90613bd2565b915050611222565b508092505050919050565b600061127b610b8a565b82106112bc576040517f08c379a00000000000000000000000000000000000000000000000000000000081526004016112b390613c8c565b60405180910390fd5b600882815481106112d0576112cf613864565b5b90600052602060002001549050919050565b6112ea611a3c565b80600c90816112f99190613e4e565b5050565b601160009054906101000a900460ff1681565b60008061131c83611f72565b9050600073ffffffffffffffffffffffffffffffffffffffff168173ffffffffffffffffffffffffffffffffffffffff160361138d576040517f08c379a000000000000000000000000000000000000000000000000000000000815260040161138490613f6c565b60405180910390fd5b80915050919050565b61139e611a3c565b600b60405180604001604052808473ffffffffffffffffffffffffffffffffffffffff16815260200183815250908060018154018082558091505060019003906000526020600020906002020160009091909190915060008201518160000160006101000a81548173ffffffffffffffffffffffffffffffffffffffff021916908373ffffffffffffffffffffffffffffffffffffffff1602179055506020820151816001015550505050565b600c80546114589061370f565b80601f01602080910402602001604051908101604052809291908181526020018280546114849061370f565b80156114d15780601f106114a6576101008083540402835291602001916114d1565b820191906000526020600020905b8154815290600101906020018083116114b457829003601f168201915b505050505081565b60008073ffffffffffffffffffffffffffffffffffffffff168273ffffffffffffffffffffffffffffffffffffffff1603611549576040517f08c379a000000000000000000000000000000000000000000000000000000000815260040161154090613ffe565b60405180910390fd5b600360008373ffffffffffffffffffffffffffffffffffffffff1673ffffffffffffffffffffffffffffffffffffffff168152602001908152602001600020549050919050565b611598611a3c565b6115a26000611faf565b565b6115ac611a3c565b8060108190555050565b6000600a60009054906101000a900473ffffffffffffffffffffffffffffffffffffffff16905090565b6060600180546115ef9061370f565b80601f016020809104026020016040519081016040528092919081815260200182805461161b9061370f565b80156116685780601f1061163d57610100808354040283529160200191611668565b820191906000526020600020905b81548152906001019060200180831161164b57829003601f168201915b5050505050905090565b61168461167d611b05565b8383612075565b5050565b611699611693611b05565b83611bc6565b6116d8576040517f08c379a00000000000000000000000000000000000000000000000000000000081526004016116cf90613905565b60405180910390fd5b6116e4848484846121e1565b50505050565b600d80546116f79061370f565b80601f01602080910402602001604051908101604052809291908181526020018280546117239061370f565b80156117705780601f1061174557610100808354040283529160200191611770565b820191906000526020600020905b81548152906001019060200180831161175357829003601f168201915b505050505081565b60606117838261223d565b6117c2576040517f08c379a00000000000000000000000000000000000000000000000000000000081526004016117b990614090565b60405180910390fd5b60006117cc61227e565b905060008151116117ec576040518060200160405280600081525061181a565b806117f68461229e565b600d60405160200161180a9392919061416f565b6040516020818303038152906040525b915050919050565b600f5481565b611830611a3c565b80600d908161183f9190613e4e565b5050565b6000600560008473ffffffffffffffffffffffffffffffffffffffff1673ffffffffffffffffffffffffffffffffffffffff16815260200190815260200160002060008373ffffffffffffffffffffffffffffffffffffffff1673ffffffffffffffffffffffffffffffffffffffff16815260200190815260200160002060009054906101000a900460ff16905092915050565b6118df611a3c565b600073ffffffffffffffffffffffffffffffffffffffff168173ffffffffffffffffffffffffffffffffffffffff160361194e576040517f08c379a000000000000000000000000000000000000000000000000000000000815260040161194590614212565b60405180910390fd5b61195781611faf565b50565b60007f80ac58cd000000000000000000000000000000000000000000000000000000007bffffffffffffffffffffffffffffffffffffffffffffffffffffffff1916827bffffffffffffffffffffffffffffffffffffffffffffffffffffffff19161480611a2557507f5b5e139f000000000000000000000000000000000000000000000000000000007bffffffffffffffffffffffffffffffffffffffffffffffffffffffff1916827bffffffffffffffffffffffffffffffffffffffffffffffffffffffff1916145b80611a355750611a348261236c565b5b9050919050565b611a44611b05565b73ffffffffffffffffffffffffffffffffffffffff16611a626115b6565b73ffffffffffffffffffffffffffffffffffffffff1614611ab8576040517f08c379a0000000000000000000000000000000000000000000000000000000008152600401611aaf9061427e565b60405180910390fd5b565b611ac38161223d565b611b02576040517f08c379a0000000000000000000000000000000000000000000000000000000008152600401611af990613f6c565b60405180910390fd5b50565b600033905090565b816004600083815260200190815260200160002060006101000a81548173ffffffffffffffffffffffffffffffffffffffff021916908373ffffffffffffffffffffffffffffffffffffffff160217905550808273ffffffffffffffffffffffffffffffffffffffff16611b8083611310565b73ffffffffffffffffffffffffffffffffffffffff167f8c5be1e5ebec7d5bd14f71427d1e84f3dd0314c0f7b2291e5b200ac8c7c3b92560405160405180910390a45050565b600080611bd283611310565b90508073ffffffffffffffffffffffffffffffffffffffff168473ffffffffffffffffffffffffffffffffffffffff161480611c145750611c138185611843565b5b80611c5257508373ffffffffffffffffffffffffffffffffffffffff16611c3a846109d3565b73ffffffffffffffffffffffffffffffffffffffff16145b91505092915050565b8273ffffffffffffffffffffffffffffffffffffffff16611c7b82611310565b73ffffffffffffffffffffffffffffffffffffffff1614611cd1576040517f08c379a0000000000000000000000000000000000000000000000000000000008152600401611cc890614310565b60405180910390fd5b600073ffffffffffffffffffffffffffffffffffffffff168273ffffffffffffffffffffffffffffffffffffffff1603611d40576040517f08c379a0000000000000000000000000000000000000000000000000000000008152600401611d37906143a2565b60405180910390fd5b611d4d83838360016123d6565b8273ffffffffffffffffffffffffffffffffffffffff16611d6d82611310565b73ffffffffffffffffffffffffffffffffffffffff1614611dc3576040517f08c379a0000000000000000000000000000000000000000000000000000000008152600401611dba90614310565b60405180910390fd5b6004600082815260200190815260200160002060006101000a81549073ffffffffffffffffffffffffffffffffffffffff02191690556001600360008573ffffffffffffffffffffffffffffffffffffffff1673ffffffffffffffffffffffffffffffffffffffff168152602001908152602001600020600082825403925050819055506001600360008473ffffffffffffffffffffffffffffffffffffffff1673ffffffffffffffffffffffffffffffffffffffff16815260200190815260200160002060008282540192505081905550816002600083815260200190815260200160002060006101000a81548173ffffffffffffffffffffffffffffffffffffffff021916908373ffffffffffffffffffffffffffffffffffffffff160217905550808273ffffffffffffffffffffffffffffffffffffffff168473ffffffffffffffffffffffffffffffffffffffff167fddf252ad1be2c89b69c2b068fc378daa952ba7f163c4a11628f55a4df523b3ef60405160405180910390a4611f4f8383836001612534565b505050565b611f6e82826040518060200160405280600081525061253a565b5050565b60006002600083815260200190815260200160002060009054906101000a900473ffffffffffffffffffffffffffffffffffffffff169050919050565b6000600a60009054906101000a900473ffffffffffffffffffffffffffffffffffffffff16905081600a60006101000a81548173ffffffffffffffffffffffffffffffffffffffff021916908373ffffffffffffffffffffffffffffffffffffffff1602179055508173ffffffffffffffffffffffffffffffffffffffff168173ffffffffffffffffffffffffffffffffffffffff167f8be0079c531659141344cd1fd0a4f28419497f9722a3daafe3b4186f6b6457e060405160405180910390a35050565b8173ffffffffffffffffffffffffffffffffffffffff168373ffffffffffffffffffffffffffffffffffffffff16036120e3576040517f08c379a00000000000000000000000000000000000000000000000000000000081526004016120da9061440e565b60405180910390fd5b80600560008573ffffffffffffffffffffffffffffffffffffffff1673ffffffffffffffffffffffffffffffffffffffff16815260200190815260200160002060008473ffffffffffffffffffffffffffffffffffffffff1673ffffffffffffffffffffffffffffffffffffffff16815260200190815260200160002060006101000a81548160ff0219169083151502179055508173ffffffffffffffffffffffffffffffffffffffff168373ffffffffffffffffffffffffffffffffffffffff167f17307eab39ab6107e8899845ad3d59bd9653f200f220920489ca2b5937696c31836040516121d49190612e6f565b60405180910390a3505050565b6121ec848484611c5b565b6121f884848484612595565b612237576040517f08c379a000000000000000000000000000000000000000000000000000000000815260040161222e906144a0565b60405180910390fd5b50505050565b60008073ffffffffffffffffffffffffffffffffffffffff1661225f83611f72565b73ffffffffffffffffffffffffffffffffffffffff1614159050919050565b60606040518060600160405280603581526020016147a060359139905090565b6060600060016122ad8461271c565b01905060008167ffffffffffffffff8111156122cc576122cb61334a565b5b6040519080825280601f01601f1916602001820160405280156122fe5781602001600182028036833780820191505090505b509050600082602001820190505b600115612361578080600190039150507f3031323334353637383961626364656600000000000000000000000000000000600a86061a8153600a8581612355576123546144c0565b5b0494506000850361230c575b819350505050919050565b60007f01ffc9a7000000000000000000000000000000000000000000000000000000007bffffffffffffffffffffffffffffffffffffffffffffffffffffffff1916827bffffffffffffffffffffffffffffffffffffffffffffffffffffffff1916149050919050565b6123e28484848461286f565b6001811115612426576040517f08c379a000000000000000000000000000000000000000000000000000000000815260040161241d90614561565b60405180910390fd5b6000829050600073ffffffffffffffffffffffffffffffffffffffff168573ffffffffffffffffffffffffffffffffffffffff160361246d5761246881612875565b6124ac565b8373ffffffffffffffffffffffffffffffffffffffff168573ffffffffffffffffffffffffffffffffffffffff16146124ab576124aa85826128be565b5b5b600073ffffffffffffffffffffffffffffffffffffffff168473ffffffffffffffffffffffffffffffffffffffff16036124ee576124e981612a2b565b61252d565b8473ffffffffffffffffffffffffffffffffffffffff168473ffffffffffffffffffffffffffffffffffffffff161461252c5761252b8482612afc565b5b5b5050505050565b50505050565b6125448383612b7b565b6125516000848484612595565b612590576040517f08c379a0000000000000000000000000000000000000000000000000000000008152600401612587906144a0565b60405180910390fd5b505050565b60006125b68473ffffffffffffffffffffffffffffffffffffffff16612d98565b1561270f578373ffffffffffffffffffffffffffffffffffffffff1663150b7a026125df611b05565b8786866040518563ffffffff1660e01b815260040161260194939291906145d6565b6020604051808303816000875af192505050801561263d57506040513d601f19601f8201168201806040525081019061263a9190614637565b60015b6126bf573d806000811461266d576040519150601f19603f3d011682016040523d82523d6000602084013e612672565b606091505b5060008151036126b7576040517f08c379a00000000000000000000000000000000000000000000000000000000081526004016126ae906144a0565b60405180910390fd5b805181602001fd5b63150b7a0260e01b7bffffffffffffffffffffffffffffffffffffffffffffffffffffffff1916817bffffffffffffffffffffffffffffffffffffffffffffffffffffffff191614915050612714565b600190505b949350505050565b600080600090507a184f03e93ff9f4daa797ed6e38ed64bf6a1f010000000000000000831061277a577a184f03e93ff9f4daa797ed6e38ed64bf6a1f01000000000000000083816127705761276f6144c0565b5b0492506040810190505b6d04ee2d6d415b85acef810000000083106127b7576d04ee2d6d415b85acef810000000083816127ad576127ac6144c0565b5b0492506020810190505b662386f26fc1000083106127e657662386f26fc1000083816127dc576127db6144c0565b5b0492506010810190505b6305f5e100831061280f576305f5e1008381612805576128046144c0565b5b0492506008810190505b612710831061283457612710838161282a576128296144c0565b5b0492506004810190505b60648310612857576064838161284d5761284c6144c0565b5b0492506002810190505b600a8310612866576001810190505b80915050919050565b50505050565b6008805490506009600083815260200190815260200160002081905550600881908060018154018082558091505060019003906000526020600020016000909190919091505550565b600060016128cb846114d9565b6128d59190614664565b90506000600760008481526020019081526020016000205490508181146129ba576000600660008673ffffffffffffffffffffffffffffffffffffffff1673ffffffffffffffffffffffffffffffffffffffff168152602001908152602001600020600084815260200190815260200160002054905080600660008773ffffffffffffffffffffffffffffffffffffffff1673ffffffffffffffffffffffffffffffffffffffff168152602001908152602001600020600084815260200190815260200160002081905550816007600083815260200190815260200160002081905550505b6007600084815260200190815260200160002060009055600660008573ffffffffffffffffffffffffffffffffffffffff1673ffffffffffffffffffffffffffffffffffffffff16815260200190815260200160002060008381526020019081526020016000206000905550505050565b60006001600880549050612a3f9190614664565b9050600060096000848152602001908152602001600020549050600060088381548110612a6f57612a6e613864565b5b906000526020600020015490508060088381548110612a9157612a90613864565b5b906000526020600020018190555081600960008381526020019081526020016000208190555060096000858152602001908152602001600020600090556008805480612ae057612adf614698565b5b6001900381819060005260206000200160009055905550505050565b6000612b07836114d9565b905081600660008573ffffffffffffffffffffffffffffffffffffffff1673ffffffffffffffffffffffffffffffffffffffff168152602001908152602001600020600083815260200190815260200160002081905550806007600084815260200190815260200160002081905550505050565b600073ffffffffffffffffffffffffffffffffffffffff168273ffffffffffffffffffffffffffffffffffffffff1603612bea576040517f08c379a0000000000000000000000000000000000000000000000000000000008152600401612be190614713565b60405180910390fd5b612bf38161223d565b15612c33576040517f08c379a0000000000000000000000000000000000000000000000000000000008152600401612c2a9061477f565b60405180910390fd5b612c416000838360016123d6565b612c4a8161223d565b15612c8a576040517f08c379a0000000000000000000000000000000000000000000000000000000008152600401612c819061477f565b60405180910390fd5b6001600360008473ffffffffffffffffffffffffffffffffffffffff1673ffffffffffffffffffffffffffffffffffffffff16815260200190815260200160002060008282540192505081905550816002600083815260200190815260200160002060006101000a81548173ffffffffffffffffffffffffffffffffffffffff021916908373ffffffffffffffffffffffffffffffffffffffff160217905550808273ffffffffffffffffffffffffffffffffffffffff16600073ffffffffffffffffffffffffffffffffffffffff167fddf252ad1be2c89b69c2b068fc378daa952ba7f163c4a11628f55a4df523b3ef60405160405180910390a4612d94600083836001612534565b5050565b6000808273ffffffffffffffffffffffffffffffffffffffff163b119050919050565b6000604051905090565b600080fd5b600080fd5b60007fffffffff0000000000000000000000000000000000000000000000000000000082169050919050565b612e0481612dcf565b8114612e0f57600080fd5b50565b600081359050612e2181612dfb565b92915050565b600060208284031215612e3d57612e3c612dc5565b5b6000612e4b84828501612e12565b91505092915050565b60008115159050919050565b612e6981612e54565b82525050565b6000602082019050612e846000830184612e60565b92915050565b612e9381612e54565b8114612e9e57600080fd5b50565b600081359050612eb081612e8a565b92915050565b600060208284031215612ecc57612ecb612dc5565b5b6000612eda84828501612ea1565b91505092915050565b600081519050919050565b600082825260208201905092915050565b60005b83811015612f1d578082015181840152602081019050612f02565b60008484015250505050565b6000601f19601f8301169050919050565b6000612f4582612ee3565b612f4f8185612eee565b9350612f5f818560208601612eff565b612f6881612f29565b840191505092915050565b60006020820190508181036000830152612f8d8184612f3a565b905092915050565b6000819050919050565b612fa881612f95565b8114612fb357600080fd5b50565b600081359050612fc581612f9f565b92915050565b600060208284031215612fe157612fe0612dc5565b5b6000612fef84828501612fb6565b91505092915050565b600073ffffffffffffffffffffffffffffffffffffffff82169050919050565b600061302382612ff8565b9050919050565b61303381613018565b82525050565b600060208201905061304e600083018461302a565b92915050565b61305d81613018565b811461306857600080fd5b50565b60008135905061307a81613054565b92915050565b6000806040838503121561309757613096612dc5565b5b60006130a58582860161306b565b92505060206130b685828601612fb6565b9150509250929050565b6000819050919050565b60006130e56130e06130db84612ff8565b6130c0565b612ff8565b9050919050565b60006130f7826130ca565b9050919050565b6000613109826130ec565b9050919050565b613119816130fe565b82525050565b60006020820190506131346000830184613110565b92915050565b61314381612f95565b82525050565b600060208201905061315e600083018461313a565b92915050565b60008060006060848603121561317d5761317c612dc5565b5b600061318b8682870161306b565b935050602061319c8682870161306b565b92505060406131ad86828701612fb6565b9150509250925092565b60006040820190506131cc6000830185613110565b6131d9602083018461313a565b9392505050565b6000806000606084860312156131f9576131f8612dc5565b5b60006132078682870161306b565b935050602061321886828701612fb6565b925050604061322986828701612fb6565b9150509250925092565b60006020828403121561324957613248612dc5565b5b60006132578482850161306b565b91505092915050565b600081519050919050565b600082825260208201905092915050565b6000819050602082019050919050565b61329581612f95565b82525050565b60006132a7838361328c565b60208301905092915050565b6000602082019050919050565b60006132cb82613260565b6132d5818561326b565b93506132e08361327c565b8060005b838110156133115781516132f8888261329b565b9750613303836132b3565b9250506001810190506132e4565b5085935050505092915050565b6000602082019050818103600083015261333881846132c0565b905092915050565b600080fd5b600080fd5b7f4e487b7100000000000000000000000000000000000000000000000000000000600052604160045260246000fd5b61338282612f29565b810181811067ffffffffffffffff821117156133a1576133a061334a565b5b80604052505050565b60006133b4612dbb565b90506133c08282613379565b919050565b600067ffffffffffffffff8211156133e0576133df61334a565b5b6133e982612f29565b9050602081019050919050565b82818337600083830152505050565b6000613418613413846133c5565b6133aa565b90508281526020810184848401111561343457613433613345565b5b61343f8482856133f6565b509392505050565b600082601f83011261345c5761345b613340565b5b813561346c848260208601613405565b91505092915050565b60006020828403121561348b5761348a612dc5565b5b600082013567ffffffffffffffff8111156134a9576134a8612dca565b5b6134b584828501613447565b91505092915050565b60006134c982613018565b9050919050565b6134d9816134be565b81146134e457600080fd5b50565b6000813590506134f6816134d0565b92915050565b6000806040838503121561351357613512612dc5565b5b6000613521858286016134e7565b925050602061353285828601612fb6565b9150509250929050565b6000806040838503121561355357613552612dc5565b5b60006135618582860161306b565b925050602061357285828601612ea1565b9150509250929050565b600067ffffffffffffffff8211156135975761359661334a565b5b6135a082612f29565b9050602081019050919050565b60006135c06135bb8461357c565b6133aa565b9050828152602081018484840111156135dc576135db613345565b5b6135e78482856133f6565b509392505050565b600082601f83011261360457613603613340565b5b81356136148482602086016135ad565b91505092915050565b6000806000806080858703121561363757613636612dc5565b5b60006136458782880161306b565b94505060206136568782880161306b565b935050604061366787828801612fb6565b925050606085013567ffffffffffffffff81111561368857613687612dca565b5b613694878288016135ef565b91505092959194509250565b600080604083850312156136b7576136b6612dc5565b5b60006136c58582860161306b565b92505060206136d68582860161306b565b9150509250929050565b7f4e487b7100000000000000000000000000000000000000000000000000000000600052602260045260246000fd5b6000600282049050600182168061372757607f821691505b60208210810361373a576137396136e0565b5b50919050565b7f4552433732313a20617070726f76616c20746f2063757272656e74206f776e6560008201527f7200000000000000000000000000000000000000000000000000000000000000602082015250565b600061379c602183612eee565b91506137a782613740565b604082019050919050565b600060208201905081810360008301526137cb8161378f565b9050919050565b7f4552433732313a20617070726f76652063616c6c6572206973206e6f7420746f60008201527f6b656e206f776e6572206f7220617070726f76656420666f7220616c6c000000602082015250565b600061382e603d83612eee565b9150613839826137d2565b604082019050919050565b6000602082019050818103600083015261385d81613821565b9050919050565b7f4e487b7100000000000000000000000000000000000000000000000000000000600052603260045260246000fd5b7f4552433732313a2063616c6c6572206973206e6f7420746f6b656e206f776e6560008201527f72206f7220617070726f76656400000000000000000000000000000000000000602082015250565b60006138ef602d83612eee565b91506138fa82613893565b604082019050919050565b6000602082019050818103600083015261391e816138e2565b9050919050565b60008151905061393481612f9f565b92915050565b6000602082840312156139505761394f612dc5565b5b600061395e84828501613925565b91505092915050565b600060408201905061397c600083018561302a565b613989602083018461313a565b9392505050565b60008151905061399f81612e8a565b92915050565b6000602082840312156139bb576139ba612dc5565b5b60006139c984828501613990565b91505092915050565b7f455243373231456e756d657261626c653a206f776e657220696e646578206f7560008201527f74206f6620626f756e6473000000000000000000000000000000000000000000602082015250565b6000613a2e602b83612eee565b9150613a39826139d2565b604082019050919050565b60006020820190508181036000830152613a5d81613a21565b9050919050565b7f4e487b7100000000000000000000000000000000000000000000000000000000600052601160045260246000fd5b6000613a9e82612f95565b9150613aa983612f95565b9250828201905080821115613ac157613ac0613a64565b5b92915050565b6000613ad282612f95565b9150613add83612f95565b9250828202613aeb81612f95565b91508282048414831517613b0257613b01613a64565b5b5092915050565b7f4e6f7420656e6f7567682062616c616e636520746f20636f6d706c657465207460008201527f72616e73616374696f6e2e000000000000000000000000000000000000000000602082015250565b6000613b65602b83612eee565b9150613b7082613b09565b604082019050919050565b60006020820190508181036000830152613b9481613b58565b9050919050565b6000606082019050613bb0600083018661302a565b613bbd602083018561302a565b613bca604083018461313a565b949350505050565b6000613bdd82612f95565b91507fffffffffffffffffffffffffffffffffffffffffffffffffffffffffffffffff8203613c0f57613c0e613a64565b5b600182019050919050565b7f455243373231456e756d657261626c653a20676c6f62616c20696e646578206f60008201527f7574206f6620626f756e64730000000000000000000000000000000000000000602082015250565b6000613c76602c83612eee565b9150613c8182613c1a565b604082019050919050565b60006020820190508181036000830152613ca581613c69565b9050919050565b60008190508160005260206000209050919050565b60006020601f8301049050919050565b600082821b905092915050565b600060088302613d0e7fffffffffffffffffffffffffffffffffffffffffffffffffffffffffffffffff82613cd1565b613d188683613cd1565b95508019841693508086168417925050509392505050565b6000613d4b613d46613d4184612f95565b6130c0565b612f95565b9050919050565b6000819050919050565b613d6583613d30565b613d79613d7182613d52565b848454613cde565b825550505050565b600090565b613d8e613d81565b613d99818484613d5c565b505050565b5b81811015613dbd57613db2600082613d86565b600181019050613d9f565b5050565b601f821115613e0257613dd381613cac565b613ddc84613cc1565b81016020851015613deb578190505b613dff613df785613cc1565b830182613d9e565b50505b505050565b600082821c905092915050565b6000613e2560001984600802613e07565b1980831691505092915050565b6000613e3e8383613e14565b9150826002028217905092915050565b613e5782612ee3565b67ffffffffffffffff811115613e7057613e6f61334a565b5b613e7a825461370f565b613e85828285613dc1565b600060209050601f831160018114613eb85760008415613ea6578287015190505b613eb08582613e32565b865550613f18565b601f198416613ec686613cac565b60005b82811015613eee57848901518255600182019150602085019450602081019050613ec9565b86831015613f0b5784890151613f07601f891682613e14565b8355505b6001600288020188555050505b505050505050565b7f4552433732313a20696e76616c696420746f6b656e2049440000000000000000600082015250565b6000613f56601883612eee565b9150613f6182613f20565b602082019050919050565b60006020820190508181036000830152613f8581613f49565b9050919050565b7f4552433732313a2061646472657373207a65726f206973206e6f74206120766160008201527f6c6964206f776e65720000000000000000000000000000000000000000000000602082015250565b6000613fe8602983612eee565b9150613ff382613f8c565b604082019050919050565b6000602082019050818103600083015261401781613fdb565b9050919050565b7f4552433732314d657461646174613a2055524920717565727920666f72206e6f60008201527f6e6578697374656e7420746f6b656e0000000000000000000000000000000000602082015250565b600061407a602f83612eee565b91506140858261401e565b604082019050919050565b600060208201905081810360008301526140a98161406d565b9050919050565b600081905092915050565b60006140c682612ee3565b6140d081856140b0565b93506140e0818560208601612eff565b80840191505092915050565b600081546140f98161370f565b61410381866140b0565b9450600182166000811461411e576001811461413357614166565b60ff1983168652811515820286019350614166565b61413c85613cac565b60005b8381101561415e5781548189015260018201915060208101905061413f565b838801955050505b50505092915050565b600061417b82866140bb565b915061418782856140bb565b915061419382846140ec565b9150819050949350505050565b7f4f776e61626c653a206e6577206f776e657220697320746865207a65726f206160008201527f6464726573730000000000000000000000000000000000000000000000000000602082015250565b60006141fc602683612eee565b9150614207826141a0565b604082019050919050565b6000602082019050818103600083015261422b816141ef565b9050919050565b7f4f776e61626c653a2063616c6c6572206973206e6f7420746865206f776e6572600082015250565b6000614268602083612eee565b915061427382614232565b602082019050919050565b600060208201905081810360008301526142978161425b565b9050919050565b7f4552433732313a207472616e736665722066726f6d20696e636f72726563742060008201527f6f776e6572000000000000000000000000000000000000000000000000000000602082015250565b60006142fa602583612eee565b91506143058261429e565b604082019050919050565b60006020820190508181036000830152614329816142ed565b9050919050565b7f4552433732313a207472616e7366657220746f20746865207a65726f2061646460008201527f7265737300000000000000000000000000000000000000000000000000000000602082015250565b600061438c602483612eee565b915061439782614330565b604082019050919050565b600060208201905081810360008301526143bb8161437f565b9050919050565b7f4552433732313a20617070726f766520746f2063616c6c657200000000000000600082015250565b60006143f8601983612eee565b9150614403826143c2565b602082019050919050565b60006020820190508181036000830152614427816143eb565b9050919050565b7f4552433732313a207472616e7366657220746f206e6f6e20455243373231526560008201527f63656976657220696d706c656d656e7465720000000000000000000000000000602082015250565b600061448a603283612eee565b91506144958261442e565b604082019050919050565b600060208201905081810360008301526144b98161447d565b9050919050565b7f4e487b7100000000000000000000000000000000000000000000000000000000600052601260045260246000fd5b7f455243373231456e756d657261626c653a20636f6e736563757469766520747260008201527f616e7366657273206e6f7420737570706f727465640000000000000000000000602082015250565b600061454b603583612eee565b9150614556826144ef565b604082019050919050565b6000602082019050818103600083015261457a8161453e565b9050919050565b600081519050919050565b600082825260208201905092915050565b60006145a882614581565b6145b2818561458c565b93506145c2818560208601612eff565b6145cb81612f29565b840191505092915050565b60006080820190506145eb600083018761302a565b6145f8602083018661302a565b614605604083018561313a565b8181036060830152614617818461459d565b905095945050505050565b60008151905061463181612dfb565b92915050565b60006020828403121561464d5761464c612dc5565b5b600061465b84828501614622565b91505092915050565b600061466f82612f95565b915061467a83612f95565b925082820390508181111561469257614691613a64565b5b92915050565b7f4e487b7100000000000000000000000000000000000000000000000000000000600052603160045260246000fd5b7f4552433732313a206d696e7420746f20746865207a65726f2061646472657373600082015250565b60006146fd602083612eee565b9150614708826146c7565b602082019050919050565b6000602082019050818103600083015261472c816146f0565b9050919050565b7f4552433732313a20746f6b656e20616c7265616479206d696e74656400000000600082015250565b6000614769601c83612eee565b915061477482614733565b602082019050919050565b600060208201905081810360008301526147988161475c565b905091905056fe697066733a2f2f4545354d6d715670354d6d715670375a524d4242697a6963566839666963566839666a556f66576963566839662fa264697066735822122072b92dcc0d253037a5b7386363cc4db9a132ef5d7aa912a820ae8f02bfcbfe8c64736f6c63430008130033",
  "immutableReferences": {},
  "source": "// SPDX-License-Identifier: MIT LICENSE\npragma solidity ^0.8.19;\n\nimport \"@openzeppelin/contracts/access/Ownable.sol\";\nimport \"@openzeppelin/contracts/token/ERC20/IERC20.sol\";\nimport \"@openzeppelin/contracts/token/ERC721/extensions/ERC721Enumerable.sol\";\n\n\ncontract Collection is ERC721Enumerable, Ownable {\n\n    struct TokenInfo {\n        IERC20 paytoken;\n        uint256 costvalue;\n    }\n\n    TokenInfo[] public AllowedCrypto;\n    \n    using Strings for uint256;\n    string public baseURI;\n    string public baseExtension = \".json\";\n    uint256 cost = 15 ether;\n    uint256 public maxSupply = 1000;\n    uint256 public maxMintAmount = 5;\n    bool public paused = false;\n\n    constructor() ERC721(\"Net2Dev NFT Collection\", \"N2D\") {}\n\n    function addCurrency(\n        IERC20 _paytoken,\n        uint256 _costvalue\n    ) public onlyOwner {\n        AllowedCrypto.push(\n            TokenInfo({\n                paytoken: _paytoken,\n                costvalue: _costvalue\n            })\n        );\n    }\n\n    function _baseURI() internal view virtual override returns (string memory) {\n    return \"ipfs://EE5MmqVp5MmqVp7ZRMBBizicVh9ficVh9fjUofWicVh9f/\";\n\n    }\n    \n    function mint(address _to, uint256 _mintAmount) public payable {\n            uint256 supply = totalSupply();\n            require(!paused);\n            require(_mintAmount > 0);\n            require(_mintAmount <= maxMintAmount);\n            require(supply + _mintAmount <= maxSupply);\n            \n            if (msg.sender != owner()) {\n            require(msg.value == cost * _mintAmount, \"Not enough balance to complete transaction.\");\n            }\n            \n            for (uint256 i = 1; i <= _mintAmount; i++) {\n                _safeMint(_to, supply + i);\n            }\n    }\n\n\n    function mintpid(address _to, uint256 _mintAmount, uint256 _pid) public payable {\n        TokenInfo storage tokens = AllowedCrypto[_pid];\n        IERC20 paytoken;\n        paytoken = tokens.paytoken;\n        uint256 cost;\n        cost = tokens.costvalue;\n        uint256 supply = totalSupply();\n        require(!paused);\n        require(_mintAmount > 0);\n        require(_mintAmount <= maxMintAmount);\n        require(supply + _mintAmount <= maxSupply);\n            \n            if (msg.sender != owner()) {\n            require(msg.value == cost * _mintAmount, \"Not enough balance to complete transaction.\");\n            }\n            \n            for (uint256 i = 1; i <= _mintAmount; i++) {\n                paytoken.transferFrom(msg.sender, address(this), cost);\n                _safeMint(_to, supply + i);\n            }\n        }\n\n        function walletOfOwner(address _owner)\n        public\n        view\n        returns (uint256[] memory)\n        {\n            uint256 ownerTokenCount = balanceOf(_owner);\n            uint256[] memory tokenIds = new uint256[](ownerTokenCount);\n            for (uint256 i; i < ownerTokenCount; i++) {\n                tokenIds[i] = tokenOfOwnerByIndex(_owner, i);\n            }\n            return tokenIds;\n        }\n    \n        \n        function tokenURI(uint256 tokenId)\n        public\n        view\n        virtual\n        override\n        returns (string memory) {\n            require(\n                _exists(tokenId),\n                \"ERC721Metadata: URI query for nonexistent token\"\n                );\n                \n                string memory currentBaseURI = _baseURI();\n                return\n                bytes(currentBaseURI).length > 0 \n                ? string(abi.encodePacked(currentBaseURI, tokenId.toString(), baseExtension))\n                : \"\";\n        }\n        // only owner\n        \n        function setmaxMintAmount(uint256 _newmaxMintAmount) public onlyOwner() {\n            maxMintAmount = _newmaxMintAmount;\n        }\n        \n        function setBaseURI(string memory _newBaseURI) public onlyOwner() {\n            baseURI = _newBaseURI;\n        }\n        \n        function setBaseExtension(string memory _newBaseExtension) public onlyOwner() {\n            baseExtension = _newBaseExtension;\n        }\n        \n        function pause(bool _state) public onlyOwner() {\n            paused = _state;\n        }\n\n        function getNFTCost(uint256 _pid) public view virtual returns(uint256) {\n            TokenInfo storage tokens = AllowedCrypto[_pid];\n            uint256 cost;\n            cost = tokens.costvalue;\n            return cost;\n        }\n\n        function getCryptotoken(uint256 _pid) public view virtual returns(IERC20) {\n            TokenInfo storage tokens = AllowedCrypto[_pid];\n            IERC20 paytoken;\n            paytoken = tokens.paytoken;\n            return paytoken;\n        }\n        \n        function withdraw(uint256 _pid) public payable onlyOwner() {\n            TokenInfo storage tokens = AllowedCrypto[_pid];\n            IERC20 paytoken;\n            paytoken = tokens.paytoken;\n            paytoken.transfer(msg.sender, paytoken.balanceOf(address(this)));\n        }\n}",
  "sourcePath": "/Users/dc_bnb/Desktop/bnb-chain-tutorial/05-NFT-Minter-Tutorial/contracts/Minter.sol",
  "compiler": {
    "name": "solc",
    "version": "0.8.19+commit.7dd6d404.Emscripten.clang"
  },
  "schemaVersion": "3.4.13",
  "updatedAt": "2023-04-04T20:57:19.980Z",
  "devdoc": {
    "events": {
      "Approval(address,address,uint256)": {
        "details": "Emitted when `owner` enables `approved` to manage the `tokenId` token."
      },
      "ApprovalForAll(address,address,bool)": {
        "details": "Emitted when `owner` enables or disables (`approved`) `operator` to manage all of its assets."
      },
      "Transfer(address,address,uint256)": {
        "details": "Emitted when `tokenId` token is transferred from `from` to `to`."
      }
    },
    "kind": "dev",
    "methods": {
      "approve(address,uint256)": {
        "details": "See {IERC721-approve}."
      },
      "balanceOf(address)": {
        "details": "See {IERC721-balanceOf}."
      },
      "getApproved(uint256)": {
        "details": "See {IERC721-getApproved}."
      },
      "isApprovedForAll(address,address)": {
        "details": "See {IERC721-isApprovedForAll}."
      },
      "name()": {
        "details": "See {IERC721Metadata-name}."
      },
      "owner()": {
        "details": "Returns the address of the current owner."
      },
      "ownerOf(uint256)": {
        "details": "See {IERC721-ownerOf}."
      },
      "renounceOwnership()": {
        "details": "Leaves the contract without owner. It will not be possible to call `onlyOwner` functions anymore. Can only be called by the current owner. NOTE: Renouncing ownership will leave the contract without an owner, thereby removing any functionality that is only available to the owner."
      },
      "safeTransferFrom(address,address,uint256)": {
        "details": "See {IERC721-safeTransferFrom}."
      },
      "safeTransferFrom(address,address,uint256,bytes)": {
        "details": "See {IERC721-safeTransferFrom}."
      },
      "setApprovalForAll(address,bool)": {
        "details": "See {IERC721-setApprovalForAll}."
      },
      "supportsInterface(bytes4)": {
        "details": "See {IERC165-supportsInterface}."
      },
      "symbol()": {
        "details": "See {IERC721Metadata-symbol}."
      },
      "tokenByIndex(uint256)": {
        "details": "See {IERC721Enumerable-tokenByIndex}."
      },
      "tokenOfOwnerByIndex(address,uint256)": {
        "details": "See {IERC721Enumerable-tokenOfOwnerByIndex}."
      },
      "tokenURI(uint256)": {
        "details": "See {IERC721Metadata-tokenURI}."
      },
      "totalSupply()": {
        "details": "See {IERC721Enumerable-totalSupply}."
      },
      "transferFrom(address,address,uint256)": {
        "details": "See {IERC721-transferFrom}."
      },
      "transferOwnership(address)": {
        "details": "Transfers ownership of the contract to a new account (`newOwner`). Can only be called by the current owner."
      }
    },
    "version": 1
  },
  "userdoc": {
    "kind": "user",
    "methods": {},
    "version": 1
  }
}